{
  "contractName": "SupplyChain",
  "abi": [
    {
      "anonymous": false,
      "inputs": [
        {
          "indexed": true,
          "internalType": "address",
          "name": "partnerAddress",
          "type": "address"
        },
        {
          "indexed": false,
          "internalType": "bool",
          "name": "committed",
          "type": "bool"
        },
        {
          "indexed": false,
          "internalType": "bool",
          "name": "riskFound",
          "type": "bool"
        },
        {
          "indexed": false,
          "internalType": "bool",
          "name": "commitmentChanged",
          "type": "bool"
        },
        {
          "indexed": false,
          "internalType": "bool",
          "name": "newsUpdated",
          "type": "bool"
        },
        {
          "indexed": false,
          "internalType": "bool",
          "name": "hasBackupPlan",
          "type": "bool"
        }
      ],
      "name": "AnswersRecorded",
      "type": "event"
    },
    {
      "constant": true,
      "inputs": [
        {
          "internalType": "address",
          "name": "",
          "type": "address"
        }
      ],
      "name": "partners",
      "outputs": [
        {
          "internalType": "string",
          "name": "name",
          "type": "string"
        },
        {
          "internalType": "bool",
          "name": "committed",
          "type": "bool"
        },
        {
          "internalType": "bool",
          "name": "riskFound",
          "type": "bool"
        },
        {
          "internalType": "bool",
          "name": "commitmentChanged",
          "type": "bool"
        },
        {
          "internalType": "bool",
          "name": "newsUpdated",
          "type": "bool"
        },
        {
          "internalType": "bool",
          "name": "hasBackupPlan",
          "type": "bool"
        },
        {
          "internalType": "uint8",
          "name": "score",
          "type": "uint8"
        },
        {
          "internalType": "bool",
          "name": "assigned",
          "type": "bool"
        }
      ],
      "payable": false,
      "stateMutability": "view",
      "type": "function"
    },
    {
      "constant": true,
      "inputs": [
        {
          "internalType": "uint256",
          "name": "",
          "type": "uint256"
        }
      ],
      "name": "rankingPartners",
      "outputs": [
        {
          "internalType": "address",
          "name": "",
          "type": "address"
        }
      ],
      "payable": false,
      "stateMutability": "view",
      "type": "function"
    },
    {
      "constant": false,
      "inputs": [
        {
          "internalType": "address",
          "name": "partnerAddress",
          "type": "address"
        }
      ],
      "name": "assignRankingPartner",
      "outputs": [],
      "payable": false,
      "stateMutability": "nonpayable",
      "type": "function"
    },
    {
      "constant": false,
      "inputs": [
        {
          "internalType": "address",
          "name": "partnerAddress",
          "type": "address"
        },
        {
          "internalType": "bool",
          "name": "committed",
          "type": "bool"
        },
        {
          "internalType": "bool",
          "name": "riskFound",
          "type": "bool"
        },
        {
          "internalType": "bool",
          "name": "commitmentChanged",
          "type": "bool"
        },
        {
          "internalType": "bool",
          "name": "newsUpdated",
          "type": "bool"
        },
        {
          "internalType": "bool",
          "name": "hasBackupPlan",
          "type": "bool"
        }
      ],
      "name": "recordAnswers",
      "outputs": [],
      "payable": false,
      "stateMutability": "nonpayable",
      "type": "function"
    },
    {
      "constant": true,
      "inputs": [],
      "name": "getRankingPartners",
      "outputs": [
        {
          "internalType": "address[]",
          "name": "",
          "type": "address[]"
        }
      ],
      "payable": false,
      "stateMutability": "view",
      "type": "function"
    }
  ],
  "bytecode": "0x608060405234801561001057600080fd5b506109c0806100206000396000f3fe608060405234801561001057600080fd5b50600436106100575760003560e01c806306d5f1761461005c5780632500f49e146100ca57806330dc3a9e1461014a57806395c336521461018e578063f6e24f9e1461029a575b600080fd5b6100886004803603602081101561007257600080fd5b81019080803590602001909291905050506102f9565b604051808273ffffffffffffffffffffffffffffffffffffffff1673ffffffffffffffffffffffffffffffffffffffff16815260200191505060405180910390f35b610148600480360360c08110156100e057600080fd5b81019080803573ffffffffffffffffffffffffffffffffffffffff169060200190929190803515159060200190929190803515159060200190929190803515159060200190929190803515159060200190929190803515159060200190929190505050610335565b005b61018c6004803603602081101561016057600080fd5b81019080803573ffffffffffffffffffffffffffffffffffffffff16906020019092919050505061063d565b005b6101d0600480360360208110156101a457600080fd5b81019080803573ffffffffffffffffffffffffffffffffffffffff1690602001909291905050506107c2565b604051808060200189151515158152602001881515151581526020018715151515815260200186151515158152602001851515151581526020018460ff1660ff1681526020018315151515815260200182810382528a818151815260200191508051906020019080838360005b8381101561025857808201518184015260208101905061023d565b50505050905090810190601f1680156102855780820380516001836020036101000a031916815260200191505b50995050505050505050505060405180910390f35b6102a26108fd565b6040518080602001828103825283818151815260200191508051906020019060200280838360005b838110156102e55780820151818401526020810190506102ca565b505050509050019250505060405180910390f35b6001818154811061030657fe5b906000526020600020016000915054906101000a900473ffffffffffffffffffffffffffffffffffffffff1681565b6000808773ffffffffffffffffffffffffffffffffffffffff1673ffffffffffffffffffffffffffffffffffffffff16815260200190815260200160002060010160069054906101000a900460ff166103f6576040517f08c379a00000000000000000000000000000000000000000000000000000000081526004018080602001828103825260178152602001807f506172746e6572206973206e6f742061737369676e656400000000000000000081525060200191505060405180910390fd5b846000808873ffffffffffffffffffffffffffffffffffffffff1673ffffffffffffffffffffffffffffffffffffffff16815260200190815260200160002060010160006101000a81548160ff021916908315150217905550836000808873ffffffffffffffffffffffffffffffffffffffff1673ffffffffffffffffffffffffffffffffffffffff16815260200190815260200160002060010160016101000a81548160ff021916908315150217905550826000808873ffffffffffffffffffffffffffffffffffffffff1673ffffffffffffffffffffffffffffffffffffffff16815260200190815260200160002060010160026101000a81548160ff021916908315150217905550816000808873ffffffffffffffffffffffffffffffffffffffff1673ffffffffffffffffffffffffffffffffffffffff16815260200190815260200160002060010160036101000a81548160ff021916908315150217905550806000808873ffffffffffffffffffffffffffffffffffffffff1673ffffffffffffffffffffffffffffffffffffffff16815260200190815260200160002060010160046101000a81548160ff0219169083151502179055508573ffffffffffffffffffffffffffffffffffffffff167f9c99c26fe9be0c05acc5a4dd2a6e9e2d7331895df6ef5b0b8b615b5e1c95a58e86868686866040518086151515158152602001851515151581526020018415151515815260200183151515158152602001821515151581526020019550505050505060405180910390a2505050505050565b6000808273ffffffffffffffffffffffffffffffffffffffff1673ffffffffffffffffffffffffffffffffffffffff16815260200190815260200160002060010160069054906101000a900460ff16156106ff576040517f08c379a000000000000000000000000000000000000000000000000000000000815260040180806020018281038252601b8152602001807f506172746e657220697320616c72656164792061737369676e6564000000000081525060200191505060405180910390fd5b60016000808373ffffffffffffffffffffffffffffffffffffffff1673ffffffffffffffffffffffffffffffffffffffff16815260200190815260200160002060010160066101000a81548160ff02191690831515021790555060018190806001815401808255809150509060018203906000526020600020016000909192909190916101000a81548173ffffffffffffffffffffffffffffffffffffffff021916908373ffffffffffffffffffffffffffffffffffffffff1602179055505050565b6000602052806000526040600020600091509050806000018054600181600116156101000203166002900480601f01602080910402602001604051908101604052809291908181526020018280546001816001161561010002031660029004801561086e5780601f106108435761010080835404028352916020019161086e565b820191906000526020600020905b81548152906001019060200180831161085157829003601f168201915b5050505050908060010160009054906101000a900460ff16908060010160019054906101000a900460ff16908060010160029054906101000a900460ff16908060010160039054906101000a900460ff16908060010160049054906101000a900460ff16908060010160059054906101000a900460ff16908060010160069054906101000a900460ff16905088565b6060600180548060200260200160405190810160405280929190818152602001828054801561098157602002820191906000526020600020905b8160009054906101000a900473ffffffffffffffffffffffffffffffffffffffff1673ffffffffffffffffffffffffffffffffffffffff1681526020019060010190808311610937575b505050505090509056fea265627a7a7231582037b3976726652342f295e2dfdb55c9d367f1a427ef36a5774802938ceaebaccd64736f6c63430005100032",
  "source": "pragma solidity 0.5.16;\n\ncontract SupplyChain {\n    struct Partner {\n        string name;\n        bool committed;\n        bool riskFound;\n        bool commitmentChanged;\n        bool newsUpdated;\n        bool hasBackupPlan;\n        uint8 score;\n        bool assigned;\n    }\n\n    mapping(address => Partner) public partners;\n    address[] public rankingPartners;\n\n    event AnswersRecorded(\n        address indexed partnerAddress,\n        bool committed,\n        bool riskFound,\n        bool commitmentChanged,\n        bool newsUpdated,\n        bool hasBackupPlan\n    );\n\n    // Assigns a ranking partner to answer the survey\n    function assignRankingPartner(address partnerAddress) public {\n        require(!partners[partnerAddress].assigned, \"Partner is already assigned\");\n        partners[partnerAddress].assigned = true;\n        rankingPartners.push(partnerAddress);\n    }\n\n    // Records the ranking partner's answers\n    function recordAnswers(\n        address partnerAddress,\n        bool committed,\n        bool riskFound,\n        bool commitmentChanged,\n        bool newsUpdated,\n        bool hasBackupPlan\n    ) public {\n        require(partners[partnerAddress].assigned, \"Partner is not assigned\");\n        partners[partnerAddress].committed = committed;\n        partners[partnerAddress].riskFound = riskFound;\n        partners[partnerAddress].commitmentChanged = commitmentChanged;\n        partners[partnerAddress].newsUpdated = newsUpdated;\n        partners[partnerAddress].hasBackupPlan = hasBackupPlan;\n\n        emit AnswersRecorded(\n            partnerAddress,\n            committed,\n            riskFound,\n            commitmentChanged,\n            newsUpdated,\n            hasBackupPlan\n        );\n    }\n\n    // Retrieves the ranking partners\n    function getRankingPartners() public view returns (address[] memory) {\n        return rankingPartners;\n    }\n}\n",
  "sourcePath": "/home/hang/lease-property/contracts/supplychain.sol",
  "compiler": {
    "name": "solc",
    "version": "0.5.16+commit.9c3226ce.Emscripten.clang"
  },
  "schemaVersion": "3.4.3",
  "updatedAt": "2023-07-01T01:37:31.073Z",
  "devdoc": {
    "methods": {}
  },
  "userdoc": {
    "methods": {}
  }
}